:1000000027C04BC04AC049C048C0CEC146C045C049
:1000100044C043C042C041C040C03FC03EC00000D9
:10002000000037000000000038000000000036002B
:10003000020202020202020202020102040810206D
:100040002004100801020000040000000000C702A4
:1000500011241FBECFE5D2E0DEBFCDBF10E0A0E689
:10006000B0E0E4E5FAE002C005900D92AE36B107CB
:10007000D9F720E0AEE6B0E001C01D92A838B20783
:10008000E1F710E0C8E2D0E003C02197FE01B9D348
:10009000C732D107D1F7D2D1DBC4B2CF823081F0E1
:1000A00018F4813051F00895833019F0843009F04C
:1000B00008958CB58F7D8CBD08958AB58F7702C069
:1000C0008AB58F7D8ABD0895CF93DF93282F30E0C6
:1000D000F901EC5BFF4F8491F901E65CFF4FD4918D
:1000E000F901E05DFF4FC491CC2389F08111D6DF87
:1000F000EC2FF0E0EE0FFF1FE65DFF4FA591B491EE
:10010000EC91ED2381E090E021F480E002C080E0FA
:1001100090E0DF91CF9108951F93CF93DF93282F25
:1001200030E0F901EC5BFF4F8491F901E65CFF4F91
:10013000D491F901E05DFF4FC491CC23B9F0162FA3
:100140008111ACDFEC2FF0E0EE0FFF1FEC5DFF4FF5
:10015000A591B4919FB7F894111104C08C91D095DA
:10016000D82302C0EC91DE2BDC939FBFDF91CF91AF
:100170001F910895CF93DF9390E0FC01E65CFF4F61
:100180002491FC01E05DFF4F8491882361F190E0B0
:10019000880F991FFC01E25EFF4FC591D491FC01CD
:1001A000EC5DFF4FA591B491611109C09FB7F89420
:1001B0008881209582238883EC912E230BC06230A6
:1001C00061F49FB7F8948881322F30958323888318
:1001D000EC912E2B2C939FBF06C08FB7F894E8812B
:1001E0002E2B28838FBFDF91CF9108953FB7F894CE
:1001F0008091730090917400A0917500B091760089
:1002000022B708B601FE05C02F3F19F00196A11DC7
:10021000B11D3FBFBA2FA92F982F8827820F911D9C
:10022000A11DB11DBC01CD0142E0660F771F881FE3
:10023000991F4A95D1F708958F929F92AF92BF92DE
:10024000CF92DF92EF92FF926B017C01CFDF4B01E7
:100250005C01C114D104E104F104E9F0C7DFDC0161
:10026000CB0188199909AA09BB09883E9340A105C9
:10027000B10578F321E0C21AD108E108F10888EE4F
:10028000880E83E0981EA11CB11CC114D104E104A6
:10029000F10421F7DECFFF90EF90DF90CF90BF9079
:1002A000AF909F908F9008950895FF920F931F93A2
:1002B000CF93DF93F82E062FC7E0D0E010E061E087
:1002C000802F2ADF8F2D00DF0C2E01C0880F0A94AB
:1002D000EAF7182B60E0802F1FDF219780F7812F2E
:1002E000DF91CF911F910F91FF900895EF92FF92B0
:1002F0000F931F93CF93DF9380917A00E5DE892BD4
:1003000029F060E070E0CB0197DFF6CFEFB6F8940C
:100310006091790080917A00C8DFC82F60917900E0
:1003200080917A00C2DFD82F6091790080917A00A5
:10033000BCDFF82E00E010E080917B0090E0081711
:10034000190758F461E080917900E6DE60E0809161
:100350007900E2DE0F5F1F4FEFCFEFBE8D2F90E0F1
:10036000A0E0B0E0BA2FA92F982F8827AC2BAC01C2
:10037000BD014F298C2F880F880B90E0A0E0B0E0E2
:10038000B82FAA27992788278A019B01082B192BA8
:100390002A2B3B2BC901B801DF91CF911F910F91FF
:1003A000FF90EF900895CBC21F920F920FB60F925D
:1003B00011242F933F938F939F93AF93BF9380917B
:1003C0006F0090917000A0917100B0917200309117
:1003D0006E0023E0230F2D3720F40196A11DB11DDF
:1003E00005C026E8230F0296A11DB11D20936E00C3
:1003F00080936F0090937000A0937100B09372008F
:100400008091730090917400A0917500B091760076
:100410000196A11DB11D8093730090937400A09369
:100420007500B0937600BF91AF919F918F913F91EE
:100430002F910F900FBE0F901F90189578948AB54A
:1004400082608ABD8AB581608ABD83B7826083BFBE
:1004500083B7816083BF89B7826089BF80B78260BC
:1004600080BF80B7816080BF329A319A309A379AC4
:100470008CB580648CBD84E08093790083E08093A8
:100480007A0061E084E076DE60E080917A0072DEDE
:1004900081E080937B0060E0809179003DDE26DF83
:1004A00061E080E067DE80E090E8ABEBB5E480934C
:1004B000800090938100A0938200B093830016DFA8
:1004C0006B017C0160E070E0CB01B6DEC701B601D4
:1004D0000CD1D8D060937C0070937D0080937E0017
:1004E00090937F00C0E0D0E001DF6B017C0160E011
:1004F00070E0CB01A1DE80917C0090917D00A09105
:100500007E00B0917F00A7019601281B390B4A0B92
:100510005B0BCA01B901E9D02091800030918100C4
:10052000409182005091830045D0ACD0672B682B5E
:10053000692B11F161E080E0EFDD61E082E01ADE1D
:1005400060E082E0E9DD64E170E080E090E074DE8C
:10055000CDDE6B017C0160E070E0CB016DDEC70198
:10056000B601C3D08FD060937C0070937D008093E0
:100570007E0090937F0006C060E080E0CDDD60E00B
:1005800082E0F8DD209709F4AFCF3ADDADCFE7E7A1
:10059000F0E08AE690E091838083158216821782CC
:1005A000108680E090E0A0E8BFE381879287A38770
:1005B000B48708950CD0EBC0E3D040F0DAD030F02F
:1005C00021F45F3F19F0CCC0511115C1CFC0F0D05C
:1005D00098F39923C9F35523B1F3951B550BBB270A
:1005E000AA2762177307840738F09F5F5F4F220FB7
:1005F000331F441FAA1FA9F333D00E2E3AF0E0E8B0
:1006000030D091505040E695001CCAF729D0FE2FFB
:1006100027D0660F771F881FBB1F2617370748078D
:10062000AB07B0E809F0BB0B802DBF01FF27935843
:100630005F4F2AF09E3F510568F092C0DCC05F3FDB
:10064000ECF3983EDCF3869577956795B795F7952B
:100650009F5FC9F7880F911D9695879597F9089523
:10066000E1E0660F771F881FBB1F621773078407BF
:10067000BA0720F0621B730B840BBA0BEE1F88F7CE
:10068000E095089504D06894B111B5C0089598D04C
:1006900088F09F5790F0B92F9927B751A0F0D1F06B
:1006A000660F771F881F991F1AF0BA95C9F712C0F5
:1006B000B13081F09FD0B1E008959CC0672F782FB2
:1006C0008827B85F39F0B93FCCF386957795679561
:1006D000B395D9F73EF490958095709561957F4FCD
:1006E0008F4F9F4F0895E89409C097FB3EF4909573
:1006F0008095709561957F4F8F4F9F4F9923A9F0FB
:10070000F92F96E9BB279395F69587957795679589
:10071000B795F111F8CFFAF4BB0F11F460FF1BC0CD
:100720006F5F7F4F8F4F9F4F16C0882311F096E960
:1007300011C0772321F09EE8872F762F05C066230E
:1007400071F096E8862F70E060E02AF09A95660FC7
:10075000771F881FDAF7880F9695879597F9089580
:1007600097F99F6780E870E060E008959FEF80EC64
:10077000089500240A941616170618060906089507
:1007800000240A9412161306140605060895092E6D
:100790000394000C11F4882352F0BB0F40F4BF2BDC
:1007A00011F460FF04C06F5F7F4F8F4F9F4F08951C
:1007B00057FD9058440F551F59F05F3F71F0479512
:1007C000880F97FB991F61F09F3F79F087950895F7
:1007D000121613061406551FF2CF4695F1DF08C016
:1007E000161617061806991FF1CF86957105610533
:1007F00008940895E894BB2766277727CB0197F9DB
:100800000895EE0FFF1F0590F491E02D09940F93CA
:100810001F93CF93DF938230910510F482E090E034
:10082000E0918600F091870020E030E0A0E0B0E0A9
:10083000309719F14081518102811381481759077E
:10084000C8F08417950769F4109731F012960C934D
:10085000129713961C9327C000938600109387006D
:1008600022C02115310519F04217530718F49A01D7
:10087000BD01EF01DF01F801DBCF21153105F9F0F2
:10088000281B390B2430310580F48A819B81611546
:10089000710521F0FB019383828304C0909387004C
:1008A00080938600FE01329644C0FE01E20FF31FE2
:1008B0008193919322503109398328833AC0209142
:1008C000840030918500232B41F420916200309107
:1008D0006300309385002093840020916000309164
:1008E00061002115310541F42DB73EB740916400F8
:1008F00050916500241B350BE0918400F091850038
:10090000E217F307A0F42E1B3F0B2817390778F0E6
:10091000AC014E5F5F4F2417350748F04E0F5F1F45
:1009200050938500409384008193919302C0E0E04E
:10093000F0E0CF01DF91CF911F910F910895CF93F8
:10094000DF93009709F481C0FC0132971382128271
:10095000A0918600B0918700109781F420813181A9
:10096000820F931F2091840030918500281739074A
:1009700051F5F0938500E093840067C0ED0120E01D
:1009800030E0CE17DF0740F44A815B819E014115BC
:100990005105F1F0EA01F5CFD383C2834081518143
:1009A000840F951FC817D90759F488819981840F3E
:1009B000951F0296918380838A819B819383828392
:1009C0002115310529F4F0938700E09386003DC09E
:1009D000E901FB83EA8349915991C40FD51FEC17B4
:1009E000FD0761F480819181840F951F0296E901D2
:1009F00099838883828193819B838A83E0E0F0E0FE
:100A000012968D919C911397009719F0FD01DC01CE
:100A1000F7CF8D919C9111979D012E5F3F4F820FD3
:100A2000931F20918400309185002817390769F4BD
:100A3000309729F4109287001092860002C013822A
:100A40001282B0938500A0938400DF91CF91089526
:040A5000F894FFCF48
:0E0A5400000088008000000000005401D30163
:00000001FF
