:1000000028C04CC04BC04AC049C0ACC147C046C064
:1000100045C044C043C042C041C040C03FC00000D2
:10002000000037000000000038000000000036002B
:10003000020202020202020202020102040810206D
:1000400020041008010200000400000000009502D6
:10005000B00211241FBECFE5D2E0DEBFCDBF10E05D
:10006000A0E6B0E0EEE2FAE002C005900D92AE36F6
:10007000B107D9F720E0AEE6B0E001C01D92A83884
:10008000B207E1F710E0C8E2D0E003C02197FE011B
:100090008FD3C732D107D1F7AFD1BDC4B1CF823032
:1000A00081F018F4813051F00895833019F08430D4
:1000B00009F008958CB58F7D8CBD08958AB58F7732
:1000C00002C08AB58F7D8ABD0895CF93DF93282F14
:1000D00030E0F901EC5BFF4F8491F901E65CFF4FE2
:1000E000D491F901E05DFF4FC491CC2389F08111D7
:1000F000D6DFEC2FF0E0EE0FFF1FE65DFF4FA5917E
:10010000B491EC91ED2381E090E021F480E002C015
:1001100080E090E0DF91CF9108951F93CF93DF931C
:10012000282F30E0F901EC5BFF4F8491F901E65C88
:10013000FF4FD491F901E05DFF4FC491CC23C1F092
:10014000162F8111ACDFEC2FF0E0EE0FFF1FEC5DFE
:10015000FF4FA591B4918FB7F894111105C09C91F0
:10016000ED2FE095E92302C0EC91ED2BEC938FBFCE
:10017000DF91CF911F910895CF93DF9390E0FC0121
:10018000E65CFF4F2491FC01E05DFF4F84918823E2
:1001900061F190E0880F991FFC01E25EFF4FC5916D
:1001A000D491FC01EC5DFF4FA591B491611109C0A0
:1001B0009FB7F8948881209582238883EC912E2321
:1001C0000BC0623061F49FB7F8943881822F80951C
:1001D00083238883EC912E2B2C939FBF06C08FB76F
:1001E000F894E8812E2B28838FBFDF91CF9108955B
:1001F0003FB7F8948091730090917400A0917500BE
:10020000B091760022B708B601FE05C02F3F19F065
:100210000196A11DB11D3FBFBA2FA92F982F882786
:10022000820F911DA11DB11DBC01CD0143E0660FE0
:10023000771F881F991F4A95D1F708954F925F92B3
:100240006F927F92BF92CF92DF92EF92FF920F93C5
:100250001F93CF93DF9300D01F92CDB7DEB78C01F1
:10026000F801838132DF892BD9F733E0B32E412C9B
:10027000512C32014394BA94EFEFBE16C9F157E006
:10028000E52EF12CCC24C394D12CCC0EDD1ECB0C4E
:10029000D11C61E0F801828140DFF801838115DF24
:1002A000892B71F0F6012081D301C2010E2C04C00C
:1002B000880F991FAA1FBB1F0A94D2F7822B0EC06A
:1002C000D301C2010E2C04C0880F991FAA1FBB1FA7
:1002D0000A94D2F78095F60190818923808360E0AB
:1002E000F80182811ADFF1E0EF1AF10890F6C3CF2E
:1002F000E12CF12CF801848190E0E816F90664F411
:1003000061E0F801828109DF60E0F801828105DFA8
:10031000FFEFEF1AFF0AEECF6A81862F90E0A0E090
:10032000B0E0BA2FA92F982F88272981822B2B8103
:100330002058BC01CD01822B0F900F900F90DF91C0
:10034000CF911F910F91FF90EF90DF90CF90BF90D2
:100350007F906F905F904F90089587E790E06ECF09
:100360000895C1C21F920F920FB60F9211242F93BE
:100370003F938F939F93AF93BF9380916F00909122
:100380007000A0917100B091720030916E0026E073
:10039000230F2D3720F40296A11DB11D05C029E8B9
:1003A000230F0396A11DB11D20936E0080936F0053
:1003B00090937000A0937100B093720080917300CD
:1003C00090917400A0917500B09176000196A11DE6
:1003D000B11D8093730090937400A0937500B09347
:1003E0007600BF91AF919F918F913F912F910F9088
:1003F0000FBE0F901F90189578948AB582608ABDC1
:100400008AB581608ABD83B7826083BF83B781600C
:1004100083BF89B7826089BF80B7826080BF80B7A1
:10042000816080BF329A319A3098379A8CB5806457
:100430008CBD61E080E0A0DE80E090E6AAE6B6E454
:100440008093800090938100A0938200B0938300FA
:1004500084DF22D1EED060937C0070937D00809386
:100460007E0090937F00C0E0D0E077DFC0907C00FA
:10047000D0907D00E0907E00F0907F006C197D09A7
:100480008E099F0909D1209180003091810040910F
:1004900082005091830065D0CCD0672B682B692BEC
:1004A000C9F161E080E039DE61E082E065DE60E0B4
:1004B00082E033DE9DDE4B015C0182E3C82ED12C4D
:1004C000E12CF12C95DEDC01CB0188199909AA09F0
:1004D000BB09883E9340A105B10558F021E0C21A3E
:1004E000D108E108F10888EE880E83E0981EA11C6F
:1004F000B11CC114D104E104F10421F72EDFCCD0EA
:1005000098D060937C0070937D0080937E009093E0
:100510007F0006C060E080E000DE60E082E02CDE6C
:10052000209709F4A2CF6CDDA0CFCF93DF93C7E76C
:10053000D0E08AE690E09983888388E08A8389E026
:100540008B8361E088E018DE60E08B8115DE81E05E
:100550008C8360E08A81E1DDCE01DF91CF916ECEA8
:1005600008950CD0EBC0E3D040F0DAD030F021F4A5
:100570005F3F19F0CCC0511115C1CFC0F0D098F336
:100580009923C9F35523B1F3951B550BBB27AA2714
:1005900062177307840738F09F5F5F4F220F331F86
:1005A000441FAA1FA9F333D00E2E3AF0E0E830D052
:1005B00091505040E695001CCAF729D0FE2F27D055
:1005C000660F771F881FBB1F261737074807AB0723
:1005D000B0E809F0BB0B802DBF01FF2793585F4F98
:1005E0002AF09E3F510568F092C0DCC05F3FECF3FB
:1005F000983EDCF3869577956795B795F7959F5F5D
:10060000C9F7880F911D9695879597F90895E1E0B0
:10061000660F771F881FBB1F621773078407BA070F
:1006200020F0621B730B840BBA0BEE1F88F7E0956A
:10063000089504D06894B111B5C0089598D088F099
:100640009F5790F0B92F9927B751A0F0D1F0660FBE
:10065000771F881F991F1AF0BA95C9F712C0B130D9
:1006600081F09FD0B1E008959CC0672F782F882734
:10067000B85F39F0B93FCCF3869577956795B39518
:10068000D9F73EF490958095709561957F4F8F4F87
:100690009F4F0895E89409C097FB3EF4909580958C
:1006A000709561957F4F8F4F9F4F9923A9F0F92F38
:1006B00096E9BB279395F695879577956795B795B6
:1006C000F111F8CFFAF4BB0F11F460FF1BC06F5F9C
:1006D0007F4F8F4F9F4F16C0882311F096E911C0AE
:1006E000772321F09EE8872F762F05C0662371F0CF
:1006F00096E8862F70E060E02AF09A95660F771FE3
:10070000881FDAF7880F9695879597F9089597F9D6
:100710009F6780E870E060E008959FEF80EC0895A7
:1007200000240A94161617061806090608950024D0
:100730000A9412161306140605060895092E03944A
:10074000000C11F4882352F0BB0F40F4BF2B11F4BE
:1007500060FF04C06F5F7F4F8F4F9F4F089557FD1D
:100760009058440F551F59F05F3F71F04795880F1F
:1007700097FB991F61F09F3F79F0879508951216B6
:1007800013061406551FF2CF4695F1DF08C0161662
:1007900017061806991FF1CF869571056105089413
:1007A0000895E894BB2766277727CB0197F908952A
:1007B000EE0FFF1F0590F491E02D0994CF93DF9386
:1007C0008230910510F482E090E0E0918600F09193
:1007D000870020E030E0C0E0D0E0309711F14081A8
:1007E000518148175907C0F04817590761F48281B1
:1007F0009381209719F09B838A832BC09093870065
:100800008093860026C02115310519F04217530741
:1008100018F49A01BE01DF01EF010280F381E02D9F
:10082000DCCF2115310509F1281B390B24303105A6
:1008300090F412968D919C9113976115710521F09A
:10084000FB019383828304C090938700809386008A
:10085000FD01329644C0FD01E20FF31F8193919395
:10086000225031092D933C933AC02091840030915D
:100870008500232B41F42091620030916300309376
:100880008500209384002091600030916100211543
:10089000310541F42DB73EB7409164005091650099
:1008A000241B350BE0918400F0918500E217F307DB
:1008B000A0F42E1B3F0B2817390778F0AC014E5FD0
:1008C0005F4F2417350748F04E0F5F1F5093850088
:1008D000409384008193919302C0E0E0F0E0CF0167
:1008E000DF91CF9108950F931F93CF93DF930097DC
:1008F00009F48CC0FC0132971382128200918600A9
:10090000109187000115110581F420813181820F3A
:10091000931F20918400309185002817390779F5BD
:10092000F0938500E093840071C0D80140E050E06E
:10093000AE17BF0750F412962D913C911397AD015D
:100940002115310509F1D901F3CF9D01DA01338376
:10095000228360817181860F971F8217930769F444
:10096000EC0128813981260F371F2E5F3F4F3183DD
:1009700020838A819B8193838283452B29F4F09382
:100980008700E093860042C01396FC93EE93129783
:10099000ED01499159919E01240F351FE217F3078C
:1009A00071F480819181840F951F029611969C931A
:1009B0008E938281938113969C938E931297E0E09D
:1009C000F0E0D80112968D919C911397009719F041
:1009D000F8018C01F6CF8D919C9198012E5F3F4FCD
:1009E000820F931F209184003091850028173907CA
:1009F00069F4309729F4109287001092860002C0A3
:100A0000138212821093850000938400DF91CF91AE
:100A10001F910F91089510E0C8E2D0E003C0FE01DD
:0E0A2000C7DE2196C932D107D1F7F894FFCF77
:0E0A2E0000008800800000000000B001B1014F
:00000001FF
